:100000000C94DD000C9405010C9405010C94050181
:100010000C9405010C9405010C9405010C94050148
:100020000C9405010C9405010C9489040C94FB04B8
:100030000C9405010C9405010C9405010C94050128
:100040000C9405010C9405010C9405010C94050118
:100050000C9405010C9405010C9405010C943F04CB
:100060000C9405010C9405010C9405010C940501F8
:100070000C9405010C9405010C9405010C940501E8
:100080000C9405010C9405010C9405010C940501D8
:100090000C9405010C9405010C9405010C940501C8
:1000A0000C9405010C9405010C94050150025302B7
:1000B000420246024A0274027402740257025B0250
:1000C0005F026502690274026F02080B00020202FD
:1000D00001000904000001020200000524001001D3
:1000E0000524010101042402060524060001070578
:1000F000810310004009040100020A000000070506
:1001000002024000000705830240000004030904C6
:1001100012010002EF02014041233680000101027A
:10012000030141726475696E6F204C4C430041724B
:100130006475696E6F204C656F6E6172646F00004C
:1001400000000200090F0000030401000C00000081
:10015000000000000000000000000000000000009F
:100160000000250028002B002E00310000000000B8
:10017000240027002A002D00300004040404040396
:100180000405020202020403020202020606060637
:10019000060604040202020404040802011040805E
:1001A000401020408040800802040180402010025E
:1001B00001108010204040202B0711241FBECFEFDC
:1001C000DAE0DEBFCDBF11E0A0E0B1E0E8E6F0E1AB
:1001D00002C005900D92A632B107D9F721E0A6E240
:1001E000B1E001C01D92A539B207E1F710E0CDEDF5
:1001F000D0E004C02197FE010E942708CC3DD10722
:10020000C9F70E9440070C9432080C94000090E05B
:10021000FC01E756FE4F2491FC01E658FE4F849105
:10022000882399F090E0880F991FFC01E459FE4F54
:10023000A591B491FC01E25AFE4F859194918FB73C
:10024000F894EC91E22BEC938FBF0895FC01809120
:100250009401811103C08FEF9FEF08959FB7F89429
:1002600082E08093E9002091F20030E0121613063C
:1002700014F421E030E02115310559F0289884E686
:10028000809393018091F10080838091F200882314
:1002900019F09FBFC90108958BE68093E800F9CF5C
:1002A0002FB7F89483E08093E9009091E800892FBC
:1002B000807295FF04C09091F20080E4891B2FBFEB
:1002C0000895CF92DF92EF92FF920F931F93CF93F7
:1002D000DF936C017A018B01C0E0D0E0CE15DF0521
:1002E00089F0D8016D918D01D601ED91FC910190BD
:1002F000F081E02DC6010995892B11F47E0102C021
:100300002196ECCFC701DF91CF911F910F91FF9004
:10031000EF90DF90CF90089580918B0181110DC0F7
:1003200082E08093870184E08093880110928A01A3
:100330001092890181E080938B0187E891E0089514
:10034000CF93DF931F92CDB7DEB76983DC01ED91C8
:10035000FC910280F381E02D41E050E0BE016F5F2F
:100360007F4F09950F90DF91CF91089583E080939F
:10037000E9008091F200882319F08AE38093E80075
:1003800008950E94500190E00895CF93DF931F924B
:10039000CDB7DEB7FC018485958597FD05C02FEFAD
:1003A0003FEF358724870BC0CE0101960E942601BE
:1003B000019719F4898190E002C08FEF9FEF0F90B1
:1003C000DF91CF9108950F931F93CF93DF931F92E7
:1003D000CDB7DEB78C01FC018485958597FF0EC0F3
:1003E000CE0101960E942601019719F4298130E07F
:1003F00002C02FEF3FEFF80135872487F80184858D
:1004000095850F90DF91CF911F910F910895FC0179
:100410008485958597FD0BC09FB7F89482E0809303
:10042000E9008091F2009FBF90E0019608959FB788
:10043000F89482E08093E9008091F2009FBF90E001
:100440000895089580E090E00895362F90E0FC0133
:10045000E15CFE4F4491FC01E756FE4F2491FC0104
:10046000E658FE4F8491882309F451C04423E1F1FA
:1004700050E0FA013197EF30F105B0F5EA5AFF4F3D
:100480000C942708909180009F7707C0909180007E
:100490009F7D03C090918000977F9093800024C03F
:1004A00094B59F7702C094B59F7D94BD1DC0909177
:1004B00090009F7707C0909190009F7D03C090911E
:1004C0009000977F909390000FC09091C0009F770D
:1004D00003C09091C0009F7D9093C00005C0909193
:1004E000C200977F9093C200E82FF0E0EE0FFF1F4D
:1004F000E25AFE4FA591B4918FB7F894EC91311167
:1005000003C020952E2301C02E2B2C938FBF08955E
:100510003FB7F8948091310190913201A09133015D
:10052000B091340126B5A89B05C02F3F19F0019664
:10053000A11DB11D3FBFBA2FA92F982F8827820F69
:10054000911DA11DB11DBC01CD0142E0660F771FB9
:10055000881F991F4A95D1F708958F929F92AF9265
:10056000BF92CF92DF92EF92FF926B017C010E94CB
:1005700088024B015C01C114D104E104F104F1F0E3
:100580000E948802DC01CB0188199909AA09BB09DC
:10059000883E9340A105B10570F321E0C21AD1084D
:1005A000E108F10888EE880E83E0981EA11CB11CBA
:1005B000C114D104E104F10419F7DDCFFF90EF90ED
:1005C000DF90CF90BF90AF909F908F9008958F92C3
:1005D0009F92AF92BF92CF92DF92EF92FF920F93D2
:1005E0001F93CF93DF935C016B017A0180910B0124
:1005F000882309F45BC080919401882309F456C0D4
:100600008091360180FF05C08091E0008260809378
:10061000E000E70110E00AEF83E0882E9AE3992ECC
:100620002097D9F10E94500181110AC0015009F4AC
:100630003DC061E070E080E090E00E94AD02F0CF4C
:10064000282F30E0C217D3070CF48C2F4FB7F89443
:100650008092E9009091E80095FF1DC0282F30E0BE
:10066000C21BD30BF601982F915020F081918093FB
:10067000F100FACFC20ED31E112319F09092E800B8
:1006800009C08091E80085FD06C09092E80011E065
:10069000209709F010E04FBFC3CF1111C3CF5D9871
:1006A00084E6809335011E141F0444F081E090E03D
:1006B000F5019383828380E090E001C0C701DF9160
:1006C000CF911F910F91FF90EF90DF90CF90BF904F
:1006D000AF909F908F9008954091280150912901EB
:1006E000209126013091270142175307B4F49091CD
:1006F000E8009570E1F39091E80092FD19C08093B5
:10070000F100809128019091290101968F7399271A
:10071000892B19F48EEF8093E80080912801909145
:1007200029010196909329018093280181E0089581
:1007300080E00895CF92DF92EF92FF920F931F9384
:10074000CF93DF931F92CDB7DEB7182F062FE42E7D
:10075000862F880F8E5F99830E946C0383E00E942E
:100760006C03F12EC12E9981D92E8C2D8F198017F3
:1007700098F4F601E7FE02C0849101C080810E94D6
:100780006C03182F80E00E946C038123FFEFCF1AC7
:10079000DF0A8111EACF01C081E00F90DF91CF9194
:1007A0001F910F91FF90EF90DF90CF900895DF920F
:1007B000EF92FF920F931F93CF93DF93D82E8A016E
:1007C0007B01E40EF51EEB01CE15DF0571F0D7FEBF
:1007D00003C0FE01849101C088810E946C032196B0
:1007E0008111F2CF8FEF9FEF01C0C801DF91CF9150
:1007F0001F910F91FF90EF90DF9008950F931F933B
:10080000CF93DF931F92CDB7DEB782E0898342E4B6
:1008100050E06AEC70E080E80E94D7030E948C01EF
:10082000DC0112960D911C9113970115110569F0C9
:10083000D801ED91FC910280F381E02DBE016F5F44
:100840007F4FC801099597FF07C089810F90DF91FD
:10085000CF911F910F910895F80100851185E5CF83
:10086000615030F02091F100FC0120830196F8CF17
:10087000289884E68093930108950E942D081F9282
:100880000F920FB60F9211242F933F938F939F9344
:10089000AF93BF9380912D0190912E01A0912F01D4
:1008A000B091300130912C0123E0230F2D3720F43B
:1008B0000196A11DB11D05C026E8230F0296A11DBA
:1008C000B11D20932C0180932D0190932E01A093B4
:1008D0002F01B09330018091310190913201A091AC
:1008E0003301B09134010196A11DB11D80933101F6
:1008F00090933201A0933301B0933401BF91AF9133
:100900009F918F913F912F910F900FBE0F901F904D
:1009100018951F920F920FB60F9211248F939F93E9
:100920008091E1009091E100937F9093E10083FF3B
:100930000FC01092E90091E09093EB001092EC0050
:1009400092E39093ED001092940198E09093F00060
:1009500082FF20C093E09093E9009091F2009923E8
:1009600019F09AE39093E80090913501992339F0BA
:1009700090913501915090933501992389F190918F
:100980009301992339F090919301915090939301A1
:10099000992341F184FF10C08091E2008E7E816036
:1009A0008093E2008091E1008F7E8093E10080914E
:1009B00036018E7E806111C080FF16C08091E200FA
:1009C0008E7E80618093E2008091E1008E7E809334
:1009D000E100809136018E7E81608093360104C0F3
:1009E0005D9ACDCF289AD6CF9F918F910F900FBE51
:1009F0000F901F9018951F920F920FB60F9211240F
:100A0000CF92DF92EF92FF920F931F932F933F931A
:100A10004F935F936F937F938F939F93AF93BF9306
:100A2000EF93FF93CF93DF93CDB7DEB76C97DEBF25
:100A3000CDBF1092E9008091E80083FFEDC168E02E
:100A4000CE0145960E94300482EF8093E8008D89A4
:100A500087FF05C09091E80090FFFCCF03C09EEF98
:100A60009093E800982F907609F0C6C09E892F8950
:100A7000188D91110CC0803829F480912B0180933E
:100A8000F10002C01092F1001092F10048C1422F13
:100A900050E0512B913051F4811141C14130510549
:100AA00009F03DC180912B018D7F0BC0933061F423
:100AB000811135C14130510509F031C180912B01BF
:100AC000826080932B012BC1953041F48091E80026
:100AD00080FFFCCF20682093E30021C1963009F00D
:100AE0005FC0EB8CFC8C1092E900109229011092EF
:100AF0002801123091F510922701109226010E94D0
:100B0000FE0399E0BE016F5F7F4FDB01E92F1D926D
:100B1000EA95E9F799831A8391E09E8390EA988792
:100B20009AEF99872091280130912901275F3F4F43
:100B30003C832B838D831092E9001092290110923F
:100B40002801F0922701E092260149E050E080E080
:100B50000E94D7030E94FE03E2C0F0922701E092B8
:100B600026010E948C01DC011296ED90FC901397F7
:100B7000E114F10409F4C0C0D701ED91FC910480A7
:100B8000F581E02DBE016B5E7F4FC701099500978F
:100B900019F00CF0C4C0C7C0F701E084F184E8CFBD
:100BA000973009F4C0C0983021F481E08093F100BF
:100BB000B6C0993009F0B3C0837009F0B4C0EDE05D
:100BC000F1E081E021E036E39081992361F08093A8
:100BD000E9002093EB0091919093EC003093ED00AD
:100BE0008F5F873089F78EE78093EA001092EA00E2
:100BF0008F898093940193C08B8D9C8D1092E90016
:100C000010922901109228019093270180932601C8
:100C1000898D811156C08E899D89913A59F481320E
:100C200009F081C047E050E064E071E080E00E949C
:100C3000D70375C0913209F076C0833289F4888D6C
:100C400090E0982F88272F89822BA0E0B0E0809336
:100C5000000190930101A0930201B09303015FC0D2
:100C6000803269F48091E80082FFFCCF67E084E085
:100C700091E00E9430048BEF8093E80006C082323E
:100C800009F04DC08F8980930B0180912A01882340
:100C900019F0EEEFFAE002C0E0E0F8E08091040124
:100CA00090910501A0910601B0910701803B94400D
:100CB000A105B10509F07BC080910B0180FF93C0B5
:100CC00076C00E948C01DC0112960D911C91139745
:100CD0000115110541F1D801ED91FC910190F081D0
:100CE000E02DBE016B5E7F4FC8010995811117C0D1
:100CF000F80100851185ECCF113009F44EC0133096
:100D000091F48F89882309F445C0823081F440E84A
:100D100060E18EE291E00E949A03882321F08EEF39
:100D20008093E80079C081E28093EB0075C0813048
:100D300029F440E86BE082E291E0EDCF833099F74F
:100D40000E948C01DC011296ED90FC9013978E01AD
:100D50000F5F1F4F6801E114F10479F0D701ED91A5
:100D6000FC910680F781E02DB801C7010995080FB5
:100D7000111DF701E084F184EECFD8011C92F60139
:100D800001900020E9F73197BF016C197D0940E01F
:100D9000C601C1CF6CE071E002C060E171E0611595
:100DA000710509F2FB01449150E080E840CF0FB695
:100DB000F894A895809160008861809360001092FB
:100DC00060000FBEA895EE3F2AE0F20739F080914F
:100DD000FE0A9091FF0A91838083A1CF1092FF0AAF
:100DE0001092FE0A9CCFEE3F8AE0F80731F0808136
:100DF00091819093FF0A8093FE0A87E797E791839A
:100E000080839BE088E10FB6F894A89580936000FA
:100E10000FBE9093600083CF6C960FB6F894DEBF40
:100E20000FBECDBFDF91CF91FF91EF91BF91AF91F9
:100E30009F918F917F916F915F914F913F912F91F2
:100E40001F910F91FF90EF90DF90CF900F900FBE0A
:100E50000F901F901895E7E3F1E01382128288EE5D
:100E600093E0A0E0B0E084839583A683B78387E115
:100E700091E0918380838FEF9FEF9587848708951A
:100E8000789484B5826084BD84B5816084BD85B565
:100E9000826085BD85B5816085BD80916E00816071
:100EA00080936E0010928100809181008260809317
:100EB0008100809181008160809381008091800019
:100EC0008160809380008091910082608093910086
:100ED0008091910081608093910080919000816069
:100EE000809390008091C10084608093C1008091C4
:100EF000C10082608093C1008091C10081608093B5
:100F0000C1008091C30081608093C3008091C000C4
:100F100082608093C0008091C20081608093C20093
:100F200080917A00846080937A0080917A00826058
:100F300080937A0080917A00816080937A0080911A
:100F40007A00806880937A001092940110922B01AD
:100F5000109236018091D70081608093D70080EA9B
:100F60008093D80089B5806189BD89B5826089BDCB
:100F700009B400FEFDCF61E070E080E090E00E94E7
:100F8000AD028091D8008F7C80618093D8008091E1
:100F9000E000807F8093E0008091E1008E7E80936E
:100FA000E1008DE08093E200559A209AEEEFFFE792
:100FB000859194918B3F9C4D19F481E080932A0197
:100FC0008BE00E9407018AE00E94070189E00E94ED
:100FD000070188E00E94070187E00E94070186E080
:100FE0000E94070185E00E94070184E00E9407013A
:100FF00083E00E94070182E00E94070181E00E94D5
:10100000070180E00E940701C0E0D0E060E08BE0D3
:101010000E94250261E088E00E94250268EE73E0EC
:1010200080E090E00E94AD0260E08BE00E9425022B
:1010300060E088E00E94250268EE73E080E090E0C6
:101040000E94AD02209711F30E940000DFCFEE0F47
:10105000FF1F0590F491E02D099481E090E0F89451
:081060000C943208F894FFCF54
:10106800FFFFFFFF00E100000000000000C18081D9
:1010780000000000000000A001E702C101B601075E
:0610880002C501E30100B6
:00000001FF
